{"abi":[{"inputs":[{"internalType":"string","name":"_description","type":"string"}],"stateMutability":"nonpayable","type":"constructor","name":"constructor"},{"anonymous":false,"inputs":[{"indexed":true,"internalType":"address","name":"oldOwner","type":"address"},{"indexed":true,"internalType":"address","name":"newOwner","type":"address"}],"name":"OwnerSet","type":"event"},{"inputs":[],"name":"buy","outputs":[],"stateMutability":"payable","type":"function"},{"inputs":[{"internalType":"address","name":"newOwner","type":"address"}],"name":"changeOwner","outputs":[],"stateMutability":"nonpayable","type":"function"},{"inputs":[],"name":"getDescription","outputs":[{"internalType":"string","name":"","type":"string"}],"stateMutability":"view","type":"function"},{"inputs":[],"name":"getIsForSale","outputs":[{"internalType":"bool","name":"","type":"bool"}],"stateMutability":"view","type":"function"},{"inputs":[],"name":"getIsStolen","outputs":[{"internalType":"bool","name":"","type":"bool"}],"stateMutability":"view","type":"function"},{"inputs":[],"name":"getOriginOwner","outputs":[{"internalType":"address","name":"","type":"address"}],"stateMutability":"view","type":"function"},{"inputs":[],"name":"getOwner","outputs":[{"internalType":"address","name":"","type":"address"}],"stateMutability":"view","type":"function"},{"inputs":[],"name":"getPriceWei","outputs":[{"internalType":"uint256","name":"","type":"uint256"}],"stateMutability":"view","type":"function"},{"inputs":[{"internalType":"bool","name":"_isForSale","type":"bool"}],"name":"setForSaleStatus","outputs":[],"stateMutability":"nonpayable","type":"function"},{"inputs":[{"internalType":"uint256","name":"_price","type":"uint256"}],"name":"setPriceWei","outputs":[],"stateMutability":"nonpayable","type":"function"},{"inputs":[{"internalType":"bool","name":"_isStolen","type":"bool"}],"name":"setStolenStatus","outputs":[],"stateMutability":"nonpayable","type":"function"}],"bytecode":"608060405234801561001057600080fd5b506040516108f23803806108f283398101604081905261002f9161014f565b60008054336001600160a01b0319918216811783556001805490921681179091556040519091907f342827c97908e5e2f71151c08502a66d44b6f758e3ac2f1de95f02eb95f0a735908290a36002805461ffff1916905580516100999060049060208401906100a0565b5050610258565b8280546100ac9061021e565b90600052602060002090601f0160209004810192826100ce5760008555610114565b82601f106100e757805160ff1916838001178555610114565b82800160010185558215610114579182015b828111156101145782518255916020019190600101906100f9565b50610120929150610124565b5090565b5b808211156101205760008155600101610125565b634e487b7160e01b600052604160045260246000fd5b6000602080838503121561016257600080fd5b82516001600160401b038082111561017957600080fd5b818501915085601f83011261018d57600080fd5b81518181111561019f5761019f610139565b604051601f8201601f19908116603f011681019083821181831017156101c7576101c7610139565b8160405282815288868487010111156101df57600080fd5b600093505b8284101561020157848401860151818501870152928501926101e4565b828411156102125760008684830101525b98975050505050505050565b600181811c9082168061023257607f821691505b60208210810361025257634e487b7160e01b600052602260045260246000fd5b50919050565b61068b806102676000396000f3fe60806040526004361061009c5760003560e01c8063893d20e811610064578063893d20e81461015e578063a6f2ae3a1461017c578063a6f9dae114610184578063b7667467146101a4578063c1e4dfda146101c4578063d11e26cc146101e457600080fd5b80630930468f146100a15780631a092541146100d857806337836b56146100fa578063705063361461011e578063890507ce14610140575b600080fd5b3480156100ad57600080fd5b506001546001600160a01b03165b6040516001600160a01b0390911681526020015b60405180910390f35b3480156100e457600080fd5b506100ed610201565b6040516100cf919061052e565b34801561010657600080fd5b5060025460ff165b60405190151581526020016100cf565b34801561012a57600080fd5b5061013e610139366004610583565b610295565b005b34801561014c57600080fd5b506003546040519081526020016100cf565b34801561016a57600080fd5b506000546001600160a01b03166100bb565b61013e6102e2565b34801561019057600080fd5b5061013e61019f3660046105ac565b61043d565b3480156101b057600080fd5b5061013e6101bf366004610583565b6104c2565b3480156101d057600080fd5b5061013e6101df3660046105d5565b6104ff565b3480156101f057600080fd5b50600254610100900460ff1661010e565b6060600280018054610212906105ee565b80601f016020809104026020016040519081016040528092919081815260200182805461023e906105ee565b801561028b5780601f106102605761010080835404028352916020019161028b565b820191906000526020600020905b81548152906001019060200180831161026e57829003601f168201915b5050505050905090565b6000546001600160a01b031633146102c85760405162461bcd60e51b81526004016102bf90610628565b60405180910390fd5b600280549115156101000261ff0019909216919091179055565b60025460ff166103245760405162461bcd60e51b815260206004820152600d60248201526c4e6f7420666f722073616c652160981b60448201526064016102bf565b600254610100900460ff161561036d5760405162461bcd60e51b815260206004820152600e60248201526d24ba32b69034b99039ba37b632b760911b60448201526064016102bf565b6003543410156103b35760405162461bcd60e51b81526020600482015260116024820152700b2deea40dccacac840dadee4ca408aa89607b1b60448201526064016102bf565b346003556002805460ff19169055600080546040516001600160a01b03909116914780156108fc02929091818181858888f193505050501580156103fb573d6000803e3d6000fd5b50600080546001600160a01b0319163390811782556040519091907f342827c97908e5e2f71151c08502a66d44b6f758e3ac2f1de95f02eb95f0a735908290a3565b6000546001600160a01b031633146104675760405162461bcd60e51b81526004016102bf90610628565b600080546040516001600160a01b03808516939216917f342827c97908e5e2f71151c08502a66d44b6f758e3ac2f1de95f02eb95f0a73591a3600080546001600160a01b0319166001600160a01b0392909216919091179055565b6000546001600160a01b031633146104ec5760405162461bcd60e51b81526004016102bf90610628565b6002805460ff1916911515919091179055565b6000546001600160a01b031633146105295760405162461bcd60e51b81526004016102bf90610628565b600355565b600060208083528351808285015260005b8181101561055b5785810183015185820160400152820161053f565b8181111561056d576000604083870101525b50601f01601f1916929092016040019392505050565b60006020828403121561059557600080fd5b813580151581146105a557600080fd5b9392505050565b6000602082840312156105be57600080fd5b81356001600160a01b03811681146105a557600080fd5b6000602082840312156105e757600080fd5b5035919050565b600181811c9082168061060257607f821691505b60208210810361062257634e487b7160e01b600052602260045260246000fd5b50919050565b60208082526013908201527221b0b63632b91034b9903737ba1037bbb732b960691b60408201526060019056fea2646970667358221220bdbdbb61167b65186905492ae5b50702d643d00973e4d2591d7d8f4309ca150b64736f6c634300080d0033","bytecodeSha1":"6c782423bfcb1ed48e5fc743ea43ed3bff1ad894","compiler":{"evm_version":"istanbul","optimizer":{"enabled":true,"runs":200},"version":"0.8.13+commit.abaa5c0e"},"contractName":"Authenticity","language":"Solidity","natspec":{"kind":"dev","methods":{"buy()":{"details":"Buy item"},"changeOwner(address)":{"details":"Change owner","params":{"newOwner":"address of new owner"}},"constructor":{"details":"Set contract deployer as owner and as origin owner"},"setPriceWei(uint256)":{"details":"Set item description, can't ba changed after cell"}},"version":1},"opcodes":"PUSH1 0x80 PUSH1 0x40 MSTORE PUSH1 0x4 CALLDATASIZE LT PUSH2 0x9C JUMPI PUSH1 0x0 CALLDATALOAD PUSH1 0xE0 SHR DUP1 PUSH4 0x893D20E8 GT PUSH2 0x64 JUMPI DUP1 PUSH4 0x893D20E8 EQ PUSH2 0x15E JUMPI DUP1 PUSH4 0xA6F2AE3A EQ PUSH2 0x17C JUMPI DUP1 PUSH4 0xA6F9DAE1 EQ PUSH2 0x184 JUMPI DUP1 PUSH4 0xB7667467 EQ PUSH2 0x1A4 JUMPI DUP1 PUSH4 0xC1E4DFDA EQ PUSH2 0x1C4 JUMPI DUP1 PUSH4 0xD11E26CC EQ PUSH2 0x1E4 JUMPI PUSH1 0x0 DUP1 REVERT JUMPDEST DUP1 PUSH4 0x930468F EQ PUSH2 0xA1 JUMPI DUP1 PUSH4 0x1A092541 EQ PUSH2 0xD8 JUMPI DUP1 PUSH4 0x37836B56 EQ PUSH2 0xFA JUMPI DUP1 PUSH4 0x70506336 EQ PUSH2 0x11E JUMPI DUP1 PUSH4 0x890507CE EQ PUSH2 0x140 JUMPI JUMPDEST PUSH1 0x0 DUP1 REVERT JUMPDEST CALLVALUE DUP1 ISZERO PUSH2 0xAD JUMPI PUSH1 0x0 DUP1 REVERT JUMPDEST POP PUSH1 0x1 SLOAD PUSH1 0x1 PUSH1 0x1 PUSH1 0xA0 SHL SUB AND JUMPDEST PUSH1 0x40 MLOAD PUSH1 0x1 PUSH1 0x1 PUSH1 0xA0 SHL SUB SWAP1 SWAP2 AND DUP2 MSTORE PUSH1 0x20 ADD JUMPDEST PUSH1 0x40 MLOAD DUP1 SWAP2 SUB SWAP1 RETURN JUMPDEST CALLVALUE DUP1 ISZERO PUSH2 0xE4 JUMPI PUSH1 0x0 DUP1 REVERT JUMPDEST POP PUSH2 0xED PUSH2 0x201 JUMP JUMPDEST PUSH1 0x40 MLOAD PUSH2 0xCF SWAP2 SWAP1 PUSH2 0x52E JUMP JUMPDEST CALLVALUE DUP1 ISZERO PUSH2 0x106 JUMPI PUSH1 0x0 DUP1 REVERT JUMPDEST POP PUSH1 0x2 SLOAD PUSH1 0xFF AND JUMPDEST PUSH1 0x40 MLOAD SWAP1 ISZERO ISZERO DUP2 MSTORE PUSH1 0x20 ADD PUSH2 0xCF JUMP JUMPDEST CALLVALUE DUP1 ISZERO PUSH2 0x12A JUMPI PUSH1 0x0 DUP1 REVERT JUMPDEST POP PUSH2 0x13E PUSH2 0x139 CALLDATASIZE PUSH1 0x4 PUSH2 0x583 JUMP JUMPDEST PUSH2 0x295 JUMP JUMPDEST STOP JUMPDEST CALLVALUE DUP1 ISZERO PUSH2 0x14C JUMPI PUSH1 0x0 DUP1 REVERT JUMPDEST POP PUSH1 0x3 SLOAD PUSH1 0x40 MLOAD SWAP1 DUP2 MSTORE PUSH1 0x20 ADD PUSH2 0xCF JUMP JUMPDEST CALLVALUE DUP1 ISZERO PUSH2 0x16A JUMPI PUSH1 0x0 DUP1 REVERT JUMPDEST POP PUSH1 0x0 SLOAD PUSH1 0x1 PUSH1 0x1 PUSH1 0xA0 SHL SUB AND PUSH2 0xBB JUMP JUMPDEST PUSH2 0x13E PUSH2 0x2E2 JUMP JUMPDEST CALLVALUE DUP1 ISZERO PUSH2 0x190 JUMPI PUSH1 0x0 DUP1 REVERT JUMPDEST POP PUSH2 0x13E PUSH2 0x19F CALLDATASIZE PUSH1 0x4 PUSH2 0x5AC JUMP JUMPDEST PUSH2 0x43D JUMP JUMPDEST CALLVALUE DUP1 ISZERO PUSH2 0x1B0 JUMPI PUSH1 0x0 DUP1 REVERT JUMPDEST POP PUSH2 0x13E PUSH2 0x1BF CALLDATASIZE PUSH1 0x4 PUSH2 0x583 JUMP JUMPDEST PUSH2 0x4C2 JUMP JUMPDEST CALLVALUE DUP1 ISZERO PUSH2 0x1D0 JUMPI PUSH1 0x0 DUP1 REVERT JUMPDEST POP PUSH2 0x13E PUSH2 0x1DF CALLDATASIZE PUSH1 0x4 PUSH2 0x5D5 JUMP JUMPDEST PUSH2 0x4FF JUMP JUMPDEST CALLVALUE DUP1 ISZERO PUSH2 0x1F0 JUMPI PUSH1 0x0 DUP1 REVERT JUMPDEST POP PUSH1 0x2 SLOAD PUSH2 0x100 SWAP1 DIV PUSH1 0xFF AND PUSH2 0x10E JUMP JUMPDEST PUSH1 0x60 PUSH1 0x2 DUP1 ADD DUP1 SLOAD PUSH2 0x212 SWAP1 PUSH2 0x5EE JUMP JUMPDEST DUP1 PUSH1 0x1F ADD PUSH1 0x20 DUP1 SWAP2 DIV MUL PUSH1 0x20 ADD PUSH1 0x40 MLOAD SWAP1 DUP2 ADD PUSH1 0x40 MSTORE DUP1 SWAP3 SWAP2 SWAP1 DUP2 DUP2 MSTORE PUSH1 0x20 ADD DUP3 DUP1 SLOAD PUSH2 0x23E SWAP1 PUSH2 0x5EE JUMP JUMPDEST DUP1 ISZERO PUSH2 0x28B JUMPI DUP1 PUSH1 0x1F LT PUSH2 0x260 JUMPI PUSH2 0x100 DUP1 DUP4 SLOAD DIV MUL DUP4 MSTORE SWAP2 PUSH1 0x20 ADD SWAP2 PUSH2 0x28B JUMP JUMPDEST DUP3 ADD SWAP2 SWAP1 PUSH1 0x0 MSTORE PUSH1 0x20 PUSH1 0x0 KECCAK256 SWAP1 JUMPDEST DUP2 SLOAD DUP2 MSTORE SWAP1 PUSH1 0x1 ADD SWAP1 PUSH1 0x20 ADD DUP1 DUP4 GT PUSH2 0x26E JUMPI DUP3 SWAP1 SUB PUSH1 0x1F AND DUP3 ADD SWAP2 JUMPDEST POP POP POP POP POP SWAP1 POP SWAP1 JUMP JUMPDEST PUSH1 0x0 SLOAD PUSH1 0x1 PUSH1 0x1 PUSH1 0xA0 SHL SUB AND CALLER EQ PUSH2 0x2C8 JUMPI PUSH1 0x40 MLOAD PUSH3 0x461BCD PUSH1 0xE5 SHL DUP2 MSTORE PUSH1 0x4 ADD PUSH2 0x2BF SWAP1 PUSH2 0x628 JUMP JUMPDEST PUSH1 0x40 MLOAD DUP1 SWAP2 SUB SWAP1 REVERT JUMPDEST PUSH1 0x2 DUP1 SLOAD SWAP2 ISZERO ISZERO PUSH2 0x100 MUL PUSH2 0xFF00 NOT SWAP1 SWAP3 AND SWAP2 SWAP1 SWAP2 OR SWAP1 SSTORE JUMP JUMPDEST PUSH1 0x2 SLOAD PUSH1 0xFF AND PUSH2 0x324 JUMPI PUSH1 0x40 MLOAD PUSH3 0x461BCD PUSH1 0xE5 SHL DUP2 MSTORE PUSH1 0x20 PUSH1 0x4 DUP3 ADD MSTORE PUSH1 0xD PUSH1 0x24 DUP3 ADD MSTORE PUSH13 0x4E6F7420666F722073616C6521 PUSH1 0x98 SHL PUSH1 0x44 DUP3 ADD MSTORE PUSH1 0x64 ADD PUSH2 0x2BF JUMP JUMPDEST PUSH1 0x2 SLOAD PUSH2 0x100 SWAP1 DIV PUSH1 0xFF AND ISZERO PUSH2 0x36D JUMPI PUSH1 0x40 MLOAD PUSH3 0x461BCD PUSH1 0xE5 SHL DUP2 MSTORE PUSH1 0x20 PUSH1 0x4 DUP3 ADD MSTORE PUSH1 0xE PUSH1 0x24 DUP3 ADD MSTORE PUSH14 0x24BA32B69034B99039BA37B632B7 PUSH1 0x91 SHL PUSH1 0x44 DUP3 ADD MSTORE PUSH1 0x64 ADD PUSH2 0x2BF JUMP JUMPDEST PUSH1 0x3 SLOAD CALLVALUE LT ISZERO PUSH2 0x3B3 JUMPI PUSH1 0x40 MLOAD PUSH3 0x461BCD PUSH1 0xE5 SHL DUP2 MSTORE PUSH1 0x20 PUSH1 0x4 DUP3 ADD MSTORE PUSH1 0x11 PUSH1 0x24 DUP3 ADD MSTORE PUSH17 0xB2DEEA40DCCACAC840DADEE4CA408AA89 PUSH1 0x7B SHL PUSH1 0x44 DUP3 ADD MSTORE PUSH1 0x64 ADD PUSH2 0x2BF JUMP JUMPDEST CALLVALUE PUSH1 0x3 SSTORE PUSH1 0x2 DUP1 SLOAD PUSH1 0xFF NOT AND SWAP1 SSTORE PUSH1 0x0 DUP1 SLOAD PUSH1 0x40 MLOAD PUSH1 0x1 PUSH1 0x1 PUSH1 0xA0 SHL SUB SWAP1 SWAP2 AND SWAP2 SELFBALANCE DUP1 ISZERO PUSH2 0x8FC MUL SWAP3 SWAP1 SWAP2 DUP2 DUP2 DUP2 DUP6 DUP9 DUP9 CALL SWAP4 POP POP POP POP ISZERO DUP1 ISZERO PUSH2 0x3FB JUMPI RETURNDATASIZE PUSH1 0x0 DUP1 RETURNDATACOPY RETURNDATASIZE PUSH1 0x0 REVERT JUMPDEST POP PUSH1 0x0 DUP1 SLOAD PUSH1 0x1 PUSH1 0x1 PUSH1 0xA0 SHL SUB NOT AND CALLER SWAP1 DUP2 OR DUP3 SSTORE PUSH1 0x40 MLOAD SWAP1 SWAP2 SWAP1 PUSH32 0x342827C97908E5E2F71151C08502A66D44B6F758E3AC2F1DE95F02EB95F0A735 SWAP1 DUP3 SWAP1 LOG3 JUMP JUMPDEST PUSH1 0x0 SLOAD PUSH1 0x1 PUSH1 0x1 PUSH1 0xA0 SHL SUB AND CALLER EQ PUSH2 0x467 JUMPI PUSH1 0x40 MLOAD PUSH3 0x461BCD PUSH1 0xE5 SHL DUP2 MSTORE PUSH1 0x4 ADD PUSH2 0x2BF SWAP1 PUSH2 0x628 JUMP JUMPDEST PUSH1 0x0 DUP1 SLOAD PUSH1 0x40 MLOAD PUSH1 0x1 PUSH1 0x1 PUSH1 0xA0 SHL SUB DUP1 DUP6 AND SWAP4 SWAP3 AND SWAP2 PUSH32 0x342827C97908E5E2F71151C08502A66D44B6F758E3AC2F1DE95F02EB95F0A735 SWAP2 LOG3 PUSH1 0x0 DUP1 SLOAD PUSH1 0x1 PUSH1 0x1 PUSH1 0xA0 SHL SUB NOT AND PUSH1 0x1 PUSH1 0x1 PUSH1 0xA0 SHL SUB SWAP3 SWAP1 SWAP3 AND SWAP2 SWAP1 SWAP2 OR SWAP1 SSTORE JUMP JUMPDEST PUSH1 0x0 SLOAD PUSH1 0x1 PUSH1 0x1 PUSH1 0xA0 SHL SUB AND CALLER EQ PUSH2 0x4EC JUMPI PUSH1 0x40 MLOAD PUSH3 0x461BCD PUSH1 0xE5 SHL DUP2 MSTORE PUSH1 0x4 ADD PUSH2 0x2BF SWAP1 PUSH2 0x628 JUMP JUMPDEST PUSH1 0x2 DUP1 SLOAD PUSH1 0xFF NOT AND SWAP2 ISZERO ISZERO SWAP2 SWAP1 SWAP2 OR SWAP1 SSTORE JUMP JUMPDEST PUSH1 0x0 SLOAD PUSH1 0x1 PUSH1 0x1 PUSH1 0xA0 SHL SUB AND CALLER EQ PUSH2 0x529 JUMPI PUSH1 0x40 MLOAD PUSH3 0x461BCD PUSH1 0xE5 SHL DUP2 MSTORE PUSH1 0x4 ADD PUSH2 0x2BF SWAP1 PUSH2 0x628 JUMP JUMPDEST PUSH1 0x3 SSTORE JUMP JUMPDEST PUSH1 0x0 PUSH1 0x20 DUP1 DUP4 MSTORE DUP4 MLOAD DUP1 DUP3 DUP6 ADD MSTORE PUSH1 0x0 JUMPDEST DUP2 DUP2 LT ISZERO PUSH2 0x55B JUMPI DUP6 DUP2 ADD DUP4 ADD MLOAD DUP6 DUP3 ADD PUSH1 0x40 ADD MSTORE DUP3 ADD PUSH2 0x53F JUMP JUMPDEST DUP2 DUP2 GT ISZERO PUSH2 0x56D JUMPI PUSH1 0x0 PUSH1 0x40 DUP4 DUP8 ADD ADD MSTORE JUMPDEST POP PUSH1 0x1F ADD PUSH1 0x1F NOT AND SWAP3 SWAP1 SWAP3 ADD PUSH1 0x40 ADD SWAP4 SWAP3 POP POP POP JUMP JUMPDEST PUSH1 0x0 PUSH1 0x20 DUP3 DUP5 SUB SLT ISZERO PUSH2 0x595 JUMPI PUSH1 0x0 DUP1 REVERT JUMPDEST DUP2 CALLDATALOAD DUP1 ISZERO ISZERO DUP2 EQ PUSH2 0x5A5 JUMPI PUSH1 0x0 DUP1 REVERT JUMPDEST SWAP4 SWAP3 POP POP POP JUMP JUMPDEST PUSH1 0x0 PUSH1 0x20 DUP3 DUP5 SUB SLT ISZERO PUSH2 0x5BE JUMPI PUSH1 0x0 DUP1 REVERT JUMPDEST DUP2 CALLDATALOAD PUSH1 0x1 PUSH1 0x1 PUSH1 0xA0 SHL SUB DUP2 AND DUP2 EQ PUSH2 0x5A5 JUMPI PUSH1 0x0 DUP1 REVERT JUMPDEST PUSH1 0x0 PUSH1 0x20 DUP3 DUP5 SUB SLT ISZERO PUSH2 0x5E7 JUMPI PUSH1 0x0 DUP1 REVERT JUMPDEST POP CALLDATALOAD SWAP2 SWAP1 POP JUMP JUMPDEST PUSH1 0x1 DUP2 DUP2 SHR SWAP1 DUP3 AND DUP1 PUSH2 0x602 JUMPI PUSH1 0x7F DUP3 AND SWAP2 POP JUMPDEST PUSH1 0x20 DUP3 LT DUP2 SUB PUSH2 0x622 JUMPI PUSH4 0x4E487B71 PUSH1 0xE0 SHL PUSH1 0x0 MSTORE PUSH1 0x22 PUSH1 0x4 MSTORE PUSH1 0x24 PUSH1 0x0 REVERT JUMPDEST POP SWAP2 SWAP1 POP JUMP JUMPDEST PUSH1 0x20 DUP1 DUP3 MSTORE PUSH1 0x13 SWAP1 DUP3 ADD MSTORE PUSH19 0x21B0B63632B91034B9903737BA1037BBB732B9 PUSH1 0x69 SHL PUSH1 0x40 DUP3 ADD MSTORE PUSH1 0x60 ADD SWAP1 JUMP INVALID LOG2 PUSH5 0x6970667358 0x22 SLT KECCAK256 0xBD 0xBD 0xBB PUSH2 0x167B PUSH6 0x186905492AE5 0xB5 SMOD MUL 0xD6 NUMBER 0xD0 MULMOD PUSH20 0xE4D2591D7D8F4309CA150B64736F6C634300080D STOP CALLER ","sha1":"605a03fb5c3e97bfa53ee88186fd926504e51773","source":"// SPDX-License-Identifier: GPL-3.0\n\npragma solidity >=0.7.0 <0.9.0;\n\n\ncontract Authenticity {\n\n    address private  owner;\n    address private originOwner;\n\n    struct ItemData {\n        bool isForSale;\n        bool isStolen;\n        uint256 price;\n        string description;\n    }\n\n    ItemData itemData;\n    \n    // event for EVM logging\n    event OwnerSet(address indexed oldOwner, address indexed newOwner);\n    \n    // modifier to check if caller is owner\n    modifier isOwner() {\n        require(msg.sender == owner, \"Caller is not owner\");\n        _;\n    }\n    \n    /**\n     * @dev Set contract deployer as owner and as origin owner\n     */\n    constructor(string memory _description) {\n        owner = msg.sender;\n        originOwner = msg.sender;\n        emit OwnerSet(address(0), owner);\n        itemData.isForSale = false;\n        itemData.isStolen = false;\n        itemData.description = _description;\n    }\n\n    /**\n     * @dev Change owner\n     * @param newOwner address of new owner\n     */\n    function changeOwner(address newOwner) public isOwner {\n        emit OwnerSet(owner, newOwner);\n        owner = newOwner;\n    }\n\n    /**\n     * @dev Buy item\n     */\n    function buy() public payable{\n        require(itemData.isForSale, \"Not for sale!\");\n        require (!itemData.isStolen, \"Item is stolen\");\n        require (msg.value >= itemData.price, \"You need more ETH\");\n\n        itemData.price = msg.value;\n        itemData.isForSale = false;\n        payable(owner).transfer(address(this).balance);\n        owner = msg.sender;\n        emit OwnerSet(address(0), owner);\n    }\n\n    /**\n     * @dev Set item description, can't ba changed after cell\n     */\n    // function setItemDescription(string memory _description) public {\n    //     require(itemData.ownersCount == 0, \"Can't be changed now\");\n    //     itemData.description = _description;\n    // }\n\n    function setPriceWei(uint256 _price) public isOwner {\n        itemData.price = _price;\n    }\n\n    function setStolenStatus(bool _isStolen) public isOwner {\n        itemData.isStolen = _isStolen;\n    }\n\n    function setForSaleStatus(bool _isForSale) public isOwner {\n        itemData.isForSale = _isForSale;\n    }\n    \n    function getOwner() external view returns (address) {\n        return owner;\n    }\n\n    function getOriginOwner() external view returns (address) {\n        return originOwner;\n    }\n\n    function getIsForSale() external view returns (bool) {\n        return itemData.isForSale;\n    }\n\n    function getIsStolen() external view returns (bool) {\n        return itemData.isStolen;\n    }\n\n    function getPriceWei() external view returns (uint256) {\n        return itemData.price;\n    }\n\n    function getDescription() external view returns (string memory) {\n        return itemData.description;\n    }\n\n\n}","sourcePath":"contracts/Authenticity.sol","type":"contract","deployment":{"address":"0xE7E4F6569418C7f5e25B449EdB52cd6534f8F825","chainid":"42","blockHeight":31096771}}